:020000040000FA
:100000000C9462000C945D030C9436030C948A00EB
:100010000C948A000C948A000C948A000C948A0038
:100020000C948A000C948A000C948A000C948A0028
:100030000C948A000C948A000C948A000C948A0018
:100040000C94EC020C948A000C94BA020C94940266
:100050000C948A000C948A000C948A000C948A00F8
:100060000C948A000C948A000000000024002700F1
:100070002A0000000000250028002B0000000008D6
:10008000000201000003040700000000000000005F
:1000900000000000230026002900040404040404D6
:1000A0000404020202020202030303030303010227
:1000B00004081020408001020408102001020408F6
:1000C0001020C90311241FBECFEFD8E0DEBFCDBF83
:1000D00011E0A0E0B1E0E8E3FEE002C005900D927F
:1000E000A232B107D9F721E0A2E2B1E001C01D922E
:1000F000A23DB207E1F710E0C2E6D0E004C02197CC
:10010000FE010E940507C136D107C9F70E941004FD
:100110000C941A070C9400008230910538F0880F77
:10012000991F880F991F05970197F1F70895AF92CE
:10013000BF92CF92DF92EF92FF920F931F93CF93D4
:10014000DF936C017B018B01040F151FEB015E0136
:10015000AE18BF08C017D10759F06991D601ED91CB
:10016000FC910190F081E02DC6010995892B79F76A
:10017000C501DF91CF911F910F91FF90EF90DF901C
:10018000CF90BF90AF900895FC01538D448D252FE3
:1001900030E0842F90E0821B930B541710F0CF9621
:1001A000089501970895FC01918D828D981761F053
:1001B000A28DAE0FBF2FB11D5D968C91928D9F5F6A
:1001C0009F73928F90E008958FEF9FEF0895FC0149
:1001D000918D828D981731F0828DE80FF11D858DFC
:1001E00090E008958FEF9FEF0895FC01918D228D8F
:1001F000892F90E0805C9F4F821B91098F73992714
:1002000008958DE291E00E94F50021E0892B09F428
:1002100020E0822F089580E090E0892B29F00E9451
:10022000010181110C9400000895FC01A48DA80F18
:10023000B92FB11DA35ABF4F2C91848D90E0019628
:100240008F739927848FA689B7892C93A089B18948
:100250008C91837080648C93938D848D981306C0E9
:100260000288F389E02D80818F7D80830895EF924D
:10027000FF920F931F93CF93DF93EC0181E0888F60
:100280009B8D8C8D98131AC0E889F989808185FF30
:1002900015C09FB7F894EE89FF896083E889F989D2
:1002A00080818370806480839FBF81E090E0DF91D4
:1002B000CF911F910F91FF90EF900895F62E0B8D27
:1002C00010E00F5F1F4F0F731127E02E8C8D8E11E2
:1002D0000CC00FB607FCFACFE889F989808185FF49
:1002E000F5CFCE010E941501F1CFEB8DEC0FFD2F64
:1002F000F11DE35AFF4FF0829FB7F8940B8FEA8904
:10030000FB8980818062CFCFCF93DF93EC01888D12
:100310008823B9F0AA89BB89E889F9898C9185FD80
:1003200003C0808186FD0DC00FB607FCF7CF8C910E
:1003300085FFF2CF808185FFEDCFCE010E941501B0
:10034000E9CFDF91CF91089590E0FC01E458FF4F91
:100350002491FC01E255FF4F3491FC01E656FF4F1A
:10036000E491EE23C9F0222339F0233001F1A8F4FF
:10037000213019F1223029F1F0E0EE0FFF1FEE5885
:10038000FF4FA591B4918FB7F894EC91611126C0FD
:1003900030953E233C938FBF08952730A9F0283035
:1003A000C9F0243049F7809180008F7D03C080918F
:1003B00080008F7780938000DFCF84B58F7784BDF6
:1003C000DBCF84B58F7DFBCF8091B0008F7780939A
:1003D000B000D2CF8091B0008F7DF9CF3E2BDACF25
:1003E000CF93DF9390E0FC01E255FF4F24918656B6
:1003F0009F4FFC0184918823D1F090E0880F991FD2
:10040000FC01E859FF4FA591B491FC01EE58FF4F54
:10041000C591D49161110EC09FB7F8948C91E22FD1
:10042000E0958E238C932881E223E8839FBFDF91A0
:10043000CF9108958FB7F894EC91E22BEC938FBF96
:10044000F6CF0895FC0101900020E9F73197AF0144
:10045000481B590BBC018DE291E00C9497008F92E0
:100460009F92AF92BF920F931F93CF93DF93CDB71D
:10047000DEB7A1970FB6F894DEBF0FBECDBF19A2AD
:10048000423008F44AE08E010F5D1F4F842E912CFC
:10049000B12CA12CA50194010E94B906E62FB90147
:1004A000CA01EA30F4F4E05DD801EE938D01232B0C
:1004B000242B252B79F790E080E0109719F0CD01DF
:1004C0000E942202A1960FB6F894DEBF0FBECDBFE8
:1004D000DF91CF911F910F91BF90AF909F908F9020
:1004E0000895E95CE1CFCF92DF92EF92FF92CF9334
:1004F000DF936B017C016DE28DE291E00E94370198
:10050000EC0166277727CB016C197D098E099F09BD
:100510004AE00E942F028C0F9D1FDF91CF91FF9028
:10052000EF90DF90CF9008951F920F920FB60F9229
:1005300011242F933F934F935F936F937F938F93E8
:100540009F93AF93BF93EF93FF938DE291E00E944F
:100550001501FF91EF91BF91AF919F918F917F9185
:100560006F915F914F913F912F910F900FBE0F9020
:100570001F9018951F920F920FB60F9211242F9370
:100580008F939F93EF93FF93E0913D01F0913E0194
:100590008081E0914301F091440182FD1BC0908174
:1005A000809146018F5F8F7320914701821741F040
:1005B000E0914601F0E0E35DFE4F958F80934601A8
:1005C000FF91EF919F918F912F910F900FBE0F9000
:1005D0001F9018958081F4CF1F920F920FB60F9243
:1005E00011242F933F938F939F93AF93BF93809149
:1005F000280190912901A0912A01B0912B013091FD
:10060000270123E0230F2D3758F50196A11DB11DB9
:10061000209327018093280190932901A0932A0118
:10062000B0932B018091230190912401A091250189
:10063000B09126010196A11DB11D809323019093D5
:100640002401A0932501B0932601BF91AF919F9102
:100650008F913F912F910F900FBE0F901F90189583
:1006600026E8230F0296A11DB11DD2CF1F920F9233
:100670000FB60F9211242F933F934F935F936F9375
:100680007F938F939F93AF93BF93EF93FF93E091EB
:100690000201F09103010995FF91EF91BF91AF9194
:1006A0009F918F917F916F915F914F913F912F918A
:1006B0000F900FBE0F901F9018951F920F920FB6BC
:1006C0000F9211242F933F934F935F936F937F93D8
:1006D0008F939F93AF93BF93EF93FF93E0910001AC
:1006E000F09101010995FF91EF91BF91AF919F9119
:1006F0008F917F916F915F914F913F912F910F90CB
:100700000FBE0F901F901895CF92DF92EF92FF923D
:100710000F931F93E82FF92F05C0015011092109EC
:10072000310961F1908196239417B9F305C0015006
:1007300011092109310911F1908196239413F7CF02
:10074000C12CD12CE12CF12C0AC08FEFC81AD80A89
:10075000E80AF80A0C151D052E053F0579F0808181
:100760008623841791F36C2D7D2D8E2D9F2D1F9147
:100770000F91FF90EF90DF90CF90089560E070E0D0
:1007800080E090E01F910F91FF90EF90DF90CF906D
:100790000895EDE2F1E01382128288EE93E0A0E08A
:1007A000B0E084839583A683B78388E091E091834A
:1007B000808385EC90E09587848784EC90E0978730
:1007C000868780EC90E0918B808B81EC90E0938B1E
:1007D000828B82EC90E0958B848B86EC90E0978BFB
:1007E000868B118E128E138E148EEEECF1E08BE060
:1007F000808387E791E09283818384E0838361E053
:100800008BE00E94F001EAECF1E08AE090E0918355
:10081000808314A615A616A617A613821282089521
:10082000CF93DF93CDB7DEB760970FB6F894DEBFF6
:100830000FBECDBF789484B5826084BD84B58160DD
:1008400084BD85B5826085BD85B5816085BD80919B
:100850006E00816080936E00109281008091810013
:10086000826080938100809181008160809381000B
:10087000809180008160809380008091B1008460CD
:100880008093B1008091B00081608093B00080912E
:100890007A00846080937A0080917A0082608093ED
:1008A0007A0080917A00816080937A0080917A004A
:1008B000806880937A001092C100E0913D01F09130
:1008C0003E0182E08083E0913901F0913A0110828B
:1008D000E0913B01F0913C0180E180831092450161
:1008E000E0914101F091420186E08083E0913F0177
:1008F000F0914001808180618083E0913F01F0911F
:100900004001808188608083E0913F01F091400147
:10091000808180688083E0913F01F0914001808177
:100920008F7D8083AE014B5F5F4F5E874D8761E0B7
:100930008DE00E94F00160E08DE00E94A40161E082
:100940008DE00E94A4018FE090E00197F1F760E054
:100950008DE00E94A40160E08CE00E94F001EAEBCF
:10096000F0E06491E6EAF0E08491E82FF0E0EE0F29
:10097000FF1FE057FF4F8591949100E412E42FE0B0
:1009800030E0462F0E9484036115710581059105B1
:1009900029F06F5F7F4F8F4F9F4F9F702AE330E0AA
:1009A00040E050E00E94DB0669017A01DA01C901EA
:1009B0000197A109B109873E9340A105B10530F027
:1009C00078EEC72E73E0D72EE12CF12C4AE0C70158
:1009D000B6010E942F0286E191E00E9422028091DE
:1009E000CC019091CD012091CA013091CB01281703
:1009F0003907B4F51092CD011092CC01C092CE010E
:100A0000D092CF01E092D001F092D10180912C01DF
:100A100081112CC06EECA62E61E0B62E10E000E035
:100A2000412C512C32012091CA013091CB01021787
:100A300013070CF045C0F50161917191819191917D
:100A40005F01460E571E681E791E97FF35C00E9433
:100A5000730286E191E00E9422020F5F1F4FE3CFF5
:100A600001969093CD018093CC01D0CF5EECA52E62
:100A700051E0B52E10E000E0412C512C32012091C4
:100A8000CA013091CB01021713070CF061C1F501C7
:100A900061917191819191915F01460E571E681E7F
:100AA000791E97FF51C10E94730286E191E00E9476
:100AB00022020F5F1F4FE3CF4AE00E942F02C9CFEF
:100AC000032E000C440B550BC301B2010E94DB0640
:100AD000C216D306E406F5064CF689E191E00E94C1
:100AE000220286E191E00E94220281E080932C01A3
:100AF0001091CE01FE013196DF0189E02CE0022E3B
:100B0000000C330BA901440F551F42704D933595CE
:100B1000279590E0AC01440F551F427013964C93FB
:100B2000139795958795AD84BE84AA16BB0639F7B1
:100B30001986B2E0BB2EBA86BB861C867F012CE0EC
:100B4000E20EF11C20E030E0A901A3E0B0E00E9439
:100B5000FA0621915B016C01A20EB11CC11CD11CD3
:100B6000A6019501EE16FF0681F78091CF019091C5
:100B7000D001B0E0A0E067E1880F991FAA1FBB1F5A
:100B80006A95D1F7C090D101D12CF12CE12C74E100
:100B9000CC0CDD1CEE1CFF1C7A95D1F78C299D290D
:100BA000AE29BF29BC01CD01622B732B842B952B61
:100BB0002B013C01E7E17694679457944794EA95BA
:100BC000D1F762019B01AC01F4E156954795379549
:100BD0002795FA95D1F7022F07708F709927ACE00F
:100BE000FA2E812C912C540142E0880C991CAA1CED
:100BF000BB1C4A95D1F723E030E040E050E00E9472
:100C0000B906862A972AA82AB92AB901CA01FA94EC
:100C1000F110EACF21E001C0220F0A95EAF7022F76
:100C20007201EE0CFF1CE40CF51C8FE1849DA00109
:100C3000859D500D1124588B4F87312C240135018F
:100C40002CE0222ED301C20183709927AA27BB274B
:100C500081309105A105B10509F44EC080F10297DC
:100C6000A105B10509F463C092E0769467945794A6
:100C700047949A95D1F72A942110E4CF61E0812F0F
:100C80000E94A401C6010E948C0060E0812F0E9496
:100C9000A4018F8598890E948C003394301670F2DD
:100CA00080E0A82E80E0B82EAB2809F440CE0E9448
:100CB0000101882309F43BCE0E94000038CE61E098
:100CC000812F0E94A401C6010E948C0060E0812F48
:100CD0000E94A401C7010E948C0061E0812F0E9444
:100CE000A401C6010E948C0060E0812F0E94A40133
:100CF000C7010E948C00B8CF61E0812F0E94A4013F
:100D0000C7010E948C0060E0812F0E94A401C601EF
:100D10000E948C0061E0812F0E94A401C7010E9403
:100D20008C0060E0812F0E94A401C601E2CF61E047
:100D3000812F0E94A401C6010E948C0060E0812FD7
:100D40000E94A401C701E4CF4AE00E942F02ADCE69
:100D5000032E000C440B550BC301B2010E94DB06AD
:100D60002C153D054E055F050CF09ACF10922C0115
:100D700097CFA1E21A2EAA1BBB1BFD010DC0AA1F13
:100D8000BB1FEE1FFF1FA217B307E407F50720F0F4
:100D9000A21BB30BE40BF50B661F771F881F991F6F
:100DA0001A9469F760957095809590959B01AC01B8
:100DB000BD01CF010895052E97FB1EF400940E94FB
:100DC000F20657FD07D00E94B90607FC03D04EF487
:100DD0000C94F20650954095309521953F4F4F4F1A
:100DE0005F4F089590958095709561957F4F8F4FD7
:100DF0009F4F08950E940B07A59F900DB49F900DE3
:100E0000A49F800D911D11240895EE0FFF1F0590E2
:100E1000F491E02D0994A29FB001B39FC001A39F5C
:100E2000700D811D1124911DB29F700D811D112423
:100E3000911D0895F894FFCF2102210200000000C7
:100E400037019700C4008401F500D300E7000D0AC4
:0A0E5000004C69676874734F6E0070
:107800000C94343C0C94513C0C94513C0C94513CE1
:107810000C94513C0C94513C0C94513C0C94513CB4
:107820000C94513C0C94513C0C94513C0C94513CA4
:107830000C94513C0C94513C0C94513C0C94513C94
:107840000C94513C0C94513C0C94513C0C94513C84
:107850000C94513C0C94513C0C94513C0C94513C74
:107860000C94513C0C94513C11241FBECFEFD8E036
:10787000DEBFCDBF11E0A0E0B1E0ECE9FFE702C060
:1078800005900D92A230B107D9F712E0A2E0B1E065
:1078900001C01D92AD30B107E1F70E942D3D0C945F
:1078A000CC3F0C94003C982F959595959595959582
:1078B000905D8F708A307CF0282F295A8091C0000B
:1078C00085FFFCCF9093C6008091C00085FFFCCF60
:1078D0002093C6000895282F205DF0CF982F809127
:1078E000C00085FFFCCF9093C6000895EF92FF92F1
:1078F0000F931F93EE24FF2487018091C00087FD22
:1079000017C00894E11CF11C011D111D81E4E8164B
:1079100082E4F8068FE0080780E0180770F3E09132
:107920000401F091050109958091C00087FFE9CF1E
:107930008091C6001F910F91FF90EF9008950E94D3
:10794000763C982F8091C00085FFFCCF9093C600B5
:1079500091362CF490330CF09053892F089597555D
:10796000892F08951F930E949F3C182F0E949F3CCF
:107970001295107F810F1F9108951F93182F882350
:1079800021F00E94763C1150E1F71F9108951F935A
:10799000182F0E94763C803249F0809103018F5F5E
:1079A000809303018530C1F01F9108958091C0003C
:1079B00085FFFCCF84E18093C6008091C00085FFE5
:1079C000FCCF1093C6008091C00085FFFCCF80E102
:1079D0008093C6001F910895E0910401F091050184
:1079E00009951F9108950E94763C803241F0809164
:1079F00003018F5F80930301853081F008958091AA
:107A0000C00085FFFCCF84E18093C6008091C00058
:107A100085FFFCCF80E18093C6000895E0910401CA
:107A2000F09105010995089540E951E08823A1F0FE
:107A30002D9A28EE33E0FA013197F1F721503040CA
:107A4000D1F72D9828EE33E0FA013197F1F7215064
:107A50003040D1F7815061F708953F924F925F9285
:107A60006F927F928F929F92AF92BF92CF92DF924E
:107A7000EF92FF920F931F93CF93DF93000080E16B
:107A80008093C4001092C50088E18093C10086E015
:107A90008093C2005098589A259A81E00E94143D24
:107AA00024E1F22E9EE1E92E85E9D82E0FE0C02ECA
:107AB00010E1B12EAA24A394B1E49B2EA6E58A2E50
:107AC000F2E57F2EE0E26E2E79E4572E63E5462E36
:107AD00050E5352E0E94763C8033B1F18133B9F107
:107AE000803409F46FC0813409F476C0823409F41B
:107AF00085C0853409F488C0803531F1823521F1A3
:107B0000813511F1853509F485C0863509F48DC0BC
:107B1000843609F496C0843709F403C1853709F423
:107B200072C1863709F466C0809103018F5F80932C
:107B30000301853079F6E0910401F0910501099582
:107B40000E94763C803351F60E94F33CC3CF0E94E2
:107B5000763C803249F78091C00085FFFCCFF092DF
:107B6000C6008091C00085FFFCCF9092C600809136
:107B7000C00085FFFCCF8092C6008091C00085FFC9
:107B8000FCCF7092C6008091C00085FFFCCF609250
:107B9000C6008091C00085FFFCCF5092C600809146
:107BA000C00085FFFCCF4092C6008091C00085FFD9
:107BB000FCCF3092C6008091C00085FFFCCFB09210
:107BC000C60088CF0E94763C863808F4BDCF0E945C
:107BD000763C0E94F33C7ECF0E94763C803809F4CC
:107BE0009CC0813809F40BC1823809F43CC1883942
:107BF00009F48FC080E00E94C73C6CCF84E10E94F2
:107C0000BD3C0E94F33C66CF85E00E94BD3C0E94D3
:107C1000F33C60CF0E94763C809306010E94763C44
:107C2000809307010E94F33C55CF0E94763C80333D
:107C300009F41DC183E00E94BD3C80E00E94C73C66
:107C400049CF0E94763C809309020E94763C809343
:107C5000080280910C028E7F80930C020E94763C79
:107C6000853409F415C18091080290910902892B8D
:107C700089F000E010E00E94763CF801E85FFE4FDA
:107C800080830F5F1F4F80910802909109020817AF
:107C9000190788F30E94763C803209F045CF809125
:107CA0000C0280FF01C16091060170910701660F0F
:107CB000771F7093070160930601A0910802B091AD
:107CC00009021097C9F0E8E0F1E09B01AD014E0F09
:107CD0005F1FF999FECF32BD21BD819180BDFA9A17
:107CE000F99A2F5F3F4FE417F50799F76A0F7B1F4B
:107CF00070930701609306018091C00085FFFCCF5F
:107D0000F092C6008091C00085FFFCCFB092C60003
:107D1000E1CE83E00E94C73CDDCE82E00E94C73CFA
:107D2000D9CE0E94763C809309020E94763C8093D3
:107D300008028091060190910701880F991F909386
:107D40000701809306010E94763C853409F4A6C0A1
:107D500080910C028E7F80930C020E94763C8032D0
:107D600009F0B8CE8091C00085FFFCCFF092C6002C
:107D7000609108027091090261157105B9F140E046
:107D800050E080910C02A82FA170B82FB27011C0E2
:107D9000BB2309F45CC0E0910601F0910701319624
:107DA000F0930701E09306014F5F5F4F46175707B7
:107DB000E8F4AA2369F3F999FECF209106013091E6
:107DC000070132BD21BDF89A90B58091C00085FFB2
:107DD000FCCF9093C6002F5F3F4F30930701209355
:107DE00006014F5F5F4F4617570718F38091C00099
:107DF00085FDE5CE8091C00085FFF8CFE0CE81E023
:107E00000E94C73C67CE0E94763C803209F08CCE3F
:107E10008091C00085FFFCCFF092C6008091C00029
:107E200085FFFCCFE092C6008091C00085FFFCCFAB
:107E3000D092C6008091C00085FFFCCFC092C600E2
:107E40008091C00085FFFCCFB092C60043CEE09188
:107E50000601F091070194918091C00085FFFCCF4D
:107E60009093C6009CCF80E10E94C73C33CE0E9415
:107E7000763C0E94763C182F0E94763C112309F430
:107E800083C0113009F484C08FE00E94C73C22CE29
:107E900080910C02816080930C02E5CE80910C02EF
:107EA000816080930C0259CF809107018823880F4D
:107EB000880B8A2180930B02809106019091070123
:107EC000880F991F90930701809306018091080203
:107ED00080FF09C080910802909109020196909359
:107EE000090280930802F894F999FECF1127E091D6
:107EF0000601F0910701C8E0D1E08091080290915D
:107F00000902103091F40091570001700130D9F34B
:107F100003E000935700E89500915700017001308D
:107F2000D9F301E100935700E89509901990009169
:107F3000570001700130D9F301E000935700E89534
:107F40001395103498F011270091570001700130FB
:107F5000D9F305E000935700E895009157000170B0
:107F60000130D9F301E100935700E895329602976A
:107F700009F0C7CF103011F00296E5CF112480919F
:107F8000C00085FFB9CEBCCE8EE10E94C73CA2CD19
:0E7F900085E90E94C73C9ECDF894FFCF80008B
:00000001FF
